:020000000C945E
:100002002A000C9400000C9400000C9400000C9444
:1000120000000C9400000C9400000C9400000C945E
:1000220000000C9400000C9400000C9400000C944E
:1000320000000C9400000C9400000C9400000C943E
:1000420000000C9400000C9400000C9400000C942E
:100052000000F894EE27ECBBF1E0FBBFEBBFE5BF7D
:100062008DE0A2E0BB27ED938A95E9F780E094E06A
:10007200A0E6ED930197E9F7EFE5EDBFE4E0EEBF0F
:10008200C0E6D1E00C944500E2E3F0E02F016624E3
:100092007724E0E0EABBE9BBEFEFE7BBE0E0E8BBD7
:1000A2007894C89B23C0E1E0F0E03F01EFEFF0E07D
:1000B200E615F7053CF068BA660C771CD2010E947F
:1000C2007D00F4CFE0E8F0E03F01E1E0F0E06E1601
:1000D2007F065CF068BAD301E2E0F0E00E949E0085
:1000E2003F01D2010E947D00F0CF04C0E0E0E8BBF6
:1000F20066247724D6CFFFCF109639F0A89588EBE7
:100102009BE00197F1F71197C9F70895F195E195F1
:10011200F04008950024112490E1AA0FBB1F001C97
:10012200111C0E1A1F0A18F40E0E1F1E01C0A16028
:100132009A9599F7FD01D001089504D0EBDF0EF4F2
:10014200E5DF0895E894F7FF02C0E0DF6894B7FFA7
:1001520006C0A095B095119600F8039400FA089590
:00000001FF
