:100000000C942F000C9400000C9400000C94000041
:100010000C9400000C9400000C9400000C94000060
:100020000C945C000C9400000C9400000C940000F4
:100030000C9400000C9400000C9400000C94000040
:100040000C9400000C9400000C9400000C94000030
:100050000C94000000000200060054000000F89418
:10006000EE27ECBBF1E0FBBFEBBFE5BF8DE0A2E00C
:10007000BB27ED938A95E9F780E094E0A0E6ED9345
:100080000197E9F7E6E5F0E085919591009761F039
:10009000A591B59105901590BF01F00105900D92C5
:1000A0000197E1F7FB01F0CFEFE5EDBFE4E0EEBF34
:1000B000C0E6D1E00C947C00EA93FA93EFB7EA93A0
:1000C000F20131962F01E5E0F0E0E415F50559F471
:1000D000EAE0F0E06E167F0614F06624772462BA38
:1000E000F30131963F01EFEFEDBDE0EFECBDE9919B
:1000F000EFBFF991E9911895E0E0EFBDE1E0EEBDC9
:10010000EFEFEDBDE0EFECBDE0E0E5BFE4BFE4E024
:10011000E9BF7894EFEFE1BBE0E0E2BBFFCFFFCFB8
:00000001FF
