:0C0000000C942C000C9400000C940000E8
:10000C000C9400000C9400000C9400000C94000064
:10001C000C9400000C9400000C9447000C9400000D
:10002C000C9400000C9400000C9400000C94000044
:10003C000C9400000C9400000C9400000C94000034
:10004C000C9400000C9400000905060AF894EE27A5
:10005C00ECBBF1E0FBBFEBBFE5BF8DE0A2E0BB2743
:10006C00ED938A95E9F780E094E0A0E6ED93019793
:10007C00E9F7EFE5EDBFE4E0EEBFC0E6D1E00C94AC
:10008C007C000A921A92FA926A937A938A939A93C0
:10009C00AA93BA93EA93FA93EFB7EA93ECE0E2BF30
:1000AC00E4E1F0E04E165F068CF49A990CC0E7E59B
:1000BC00F0E036D0E6E5F0E033D0E5E5F0E030D026
:1000CC00E4E5F0E02DD0F20131962F0144245524C3
:1000DC00E991EFBFF991E991B991A9919991899120
:1000EC0079916991F990199009901895E5E0E3BF21
:1000FC00ECE0E2BFE0E0ECBFEFBDEEBDEDBDECBD72
:10010C00E5BDE4BDE1E0E9BF789444245524E0E08A
:10011C00E4BBE3BBEFEFE7BBE0E0E8BBFFCFFFCF17
:10012C00049008BAAAE0B0E00C949C00109639F048
:10013C00A89588EB9BE00197F1F71197C9F7089503
:00000001FF
