:020000000C945E
:1000020045000C9400000C9400000C9400000C9429
:1000120000000C9400000C9400000C9400000C945E
:1000220000000C9400000C9400000C9400000C944E
:1000320000000C9400000C9400000C9400000C943E
:1000420000000C9400000C9400000C9400000C942E
:1000520000001027E80364000A00010000100001FC
:10006200100001006162636465666768696A6B6CAF
:100072006D6E6F70717273747778797A000080C0D8
:100082000200600180000000F894EE27ECBBF1E072
:10009200FBBFEBBFE5BF8DE0A2E0BB27ED938A95E6
:1000A200E9F780E094E0A0E6ED930197E9F7E2E852
:1000B200F0E085919591009761F0A591B591059039
:1000C2001590BF01F00105900D920197E1F7FB0138
:1000D200F0CFEFE5EDBFE4E0EEBFC0E6D1E00C9477
:1000E2007200699789E1A0E0B0E0E6E6F0E00E94E4
:1000F200A201E0E0E8BBE7BBA0E10E9437010E9459
:10010200F90000E010E00C31E0E01E07ECF40F30E3
:10011200E0E01E071CF40A93A0E007C0D801EFE05C
:10012200F0E00E949401EA93A1E00E94E900DE015E
:10013200A00FB11FAC910E940C01A2E3B0E00E949B
:1001420073010F5F1F4FDFCF0E94F900DACFFFCF9D
:10015200FFE0FA95F1F70895A7B3AF70A7BBC19A74
:10016200C098F6DFC29AF4DFA6B3C298F1DFC29A52
:10017200EFDFC298A7FDF5CF0895A07FAB2BA8BBF8
:10018200C29A0E94A900C2980E94A9000895AA9347
:10019200C198A7B3A76FA7BBB8B3BF70A881EDDFA3
:1001A200A881A295EADFC19A0C946801C29A0E94C2
:1001B200A900E6B3C2980E94A900E07F08950E94B8
:1001C200A900F4DFAE2FF2DFC198E295EA2B089581
:1001D200AA930E94AD00E881F0E0E05AFE4FE08170
:1001E200A981AE0F0E94C8005980488022960895C6
:1001F2000E94AD00A2E00E94C8000E94AD00ACE0E7
:100202000E94C8000E94AD00A1E00E94C800E0E088
:100212004E2E5E2E0895AA93EF93FF93A8816894C1
:10022200AA3019F0E894571430F04394E0E0EA93CE
:10023200A42DCEDF36F053948FDFC09AA8810E949E
:10024200C800FF91EF910C946801AA27BB27119770
:10025200F1F70895AA93C198A7B3A76FA7BBB8B344
:10026200BF70A8810E94BE00C19A31C0AA93C298F1
:10027200C0987880E881E058E0936201E881E05418
:10028200E09363010E946A010E946A010E946A016E
:10029200DCDFA0E2DFDFD9DFA8E20E946F01A4E089
:1002A2000E946F01A5E80E946F01A7B3AF70A7BBC0
:1002B200C19A0E94E000E53011F0E0E008C00E941F
:1002C200AD00A6E00E94C8000E94F900E1E021967C
:1002D20008950E942601A0E30C942B010E94C800FD
:1002E2000C942601109639F0A89588EB9BE00197B3
:1002F200F1F71197C9F70895F195E195F040089546
:100302000024112490E1AA0FBB1F001C111C0E1A1D
:100312001F0A18F40E0E1F1E01C0A1609A9599F7CC
:10032200FD01D0010895E894B7FF04C0A095B095EF
:1003320011966894F7FDE0DFE3DFFD010EF4DCDFE8
:100342000895AC0FBD1F05900D928A95E1F70895AF
:00000001FF
